:100000000C943B010C946C010C946C010C946C01ED
:100010000C946C010C946C010C946C010C946C01AC
:100020000C946C010C946C010C946C010C946C019C
:100030000C946C010C946C010C946C010C946C018C
:100040000C946C010C946C010C946C010C946C017C
:100050000C946C010C946C010C946C010C94F807DA
:100060000C946C010C94CE070C94A4070C946C01B6
:100070000C946C010C946C010C946C010C946C014C
:100080000C946C010C946C010C946C010C946C013C
:100090000C947A070C9450070C946C010C94420851
:1000A0000C946C010C946C010C946C010C946C011C
:1000B0000C946C010C946C010C946C010C946C010C
:1000C0000C946C010C946C010C946C010C9426073C
:1000D0000C94FC060C946C010C94D2060C94A806AB
:1000E0000C946C010C942D060C9469030C949203EF
:1000F0000C944B020C94A0030C947A030C949F0371
:100100000C9459020C947E040C9496030C945F0397
:100110000C9484030C9471030C94FC020C94EA017B
:100120000C947D040C948C030C946D030C94650367
:100130000C9488030C947E030C9495010C94620932
:100140000C94AF020C94A4030C9474030C949A03C3
:100150000C94DB0100002100240027002A002D0060
:100160003000330001010000040107010A01000012
:100170002200250028002B002E003100340002014F
:100180000000050108010B010000200023002600EB
:1001900029002C002F00320000010000030106019D
:1001A00009010505050507050808080802020202FD
:1001B0000A0A080804040404010101010101010103
:1001C0000303030303030303040707070C0C0C0CCE
:1001D0000C0C0C0C020202020606060606060606B7
:1001E0000B0B0B0B0B0B0B0B010210202008081044
:1001F0002040102040800201020108040201010297
:10020000040810204080804020100804020180046F
:1002100002018040201008040201080402010102CA
:1002200004081020408001020408102040800000D3
:100230000A0B02090C0D0E08070304010000000060
:1002400000000000000000000000000000000000AE
:10025000000000000000000000001211100000006B
:10026000000000000000000000000000000000008E
:1002700000000000620911241FBECFEFD1E2DEBFF3
:10028000CDBF00E00CBF25E0AEE3B2E001C01D929F
:10029000AC35B207E1F712E0A0E0B2E0E2EBF8E142
:1002A00000E00BBF02C007900D92AE33B107D9F743
:1002B00011E0CBE3D1E000E006C021970109802FD7
:1002C000FE010E944F0CCA33D10780E00807A9F74E
:1002D0000E941E0A0C94570C0C940000FC01A0898B
:1002E000B18982E08C93A485B5851C92A685B785DB
:1002F0008FEC8C93108EA489B58986E08C93A289AB
:10030000B3898C9180618C93A289B3898C91886028
:100310008C93A289B3898C9180688C930288F3892D
:10032000E02D80818F7D80830895AF92BF92CF9220
:10033000DF92EF92FF920F931F93CF93DF936C01A5
:100340007B018B01040F151FEB015E01AE18BF0886
:10035000C017D10759F06991D601ED91FC91019038
:10036000F081E02DC6011995892B79F7C501DF9140
:10037000CF911F910F91FF90EF90DF90CF90BF90A2
:10038000AF900895FC01A089B1898C91A689B789A5
:1003900082FD0FC09C91818D8F5F8F73228D82179C
:1003A00049F0A18DAE0FBF2FB11D5D969C93818F3B
:1003B00008958C910895FC01538D448D252F30E0D4
:1003C000842F90E0821B930B541710F0CF96089562
:1003D00001970895FC01918D828D981761F0A28D8F
:1003E000AE0FBF2FB11D5D968C91928D9F5F9F7355
:1003F000928F90E008958FEF9FEF0895EF92FF9214
:100400000F931F93CF93DF938C017B01D0E0C0E06B
:100410002FB7F8948091CC029091CD02A091CE029A
:10042000B091CF022FBFF80180879187A287B38751
:10043000C8010E94EA0197FF25C02FB7F894809168
:10044000CC029091CD02A091CE02B091CF022FBFED
:10045000F8014085518562857385841B950BA60B39
:10046000B70B448155816681778184179507A6076C
:10047000B707F0F2CE01DF91CF911F910F91FF905E
:10048000EF900895F70181937F012196C430D10543
:1004900009F0BECFEFCFFC01918D828D981731F01E
:1004A000828DE80FF11D858D90E008958FEF9FEF0D
:1004B0000895FC01918D228D892F90E0805C9F4FE3
:1004C000821B91098F739927089580ED92E00E9415
:1004D000590221E0892B09F420E0822F08958DE64E
:1004E00093E00E94590221E0892B09F420E0822F39
:1004F00008958AE094E00E94590221E0892B09F4D2
:1005000020E0822F089587EA94E00E94590221E0BA
:10051000892B09F420E0822F0895FC01A48DA80FF7
:10052000B92FB11DA35ABF4F2C91848D90E0019635
:100530008F739927848FA689B7892C93A089B18955
:100540008C91837080648C93938D848D981306C0F6
:100550000288F389E02D80818F7D80830895EF925A
:10056000FF920F931F93CF93DF93EC0181E0888F6D
:100570009B8D8C8D98131AC0E889F989808185FF3D
:1005800015C09FB7F894EE89FF896083E889F989DF
:1005900080818370806480839FBF81E090E0DF91E1
:1005A000CF911F910F91FF90EF900895F62E0B8D34
:1005B00010E00F5F1F4F0F731127E02E8C8D8E11EF
:1005C0000CC00FB607FCFACFE889F989808185FF56
:1005D000F5CFCE010E948D02F1CFEB8DEC0FFD2FF8
:1005E000F11DE35AFF4FF0829FB7F8940B8FEA8911
:1005F000FB8980818062CFCFCF93DF93EC01888D20
:100600008823B9F0AA89BB89E889F9898C9185FD8D
:1006100003C0808186FD0DC00FB607FCF7CF8C911B
:1006200085FFF2CF808185FFEDCFCE010E948D0244
:10063000E9CFDF91CF91089580E090E0892B29F0F8
:100640000E94830281110E94000080E090E0892BCB
:1006500029F00E94790281110E94000080E090E060
:10066000892B29F00E946F0281110E94000080E016
:1006700090E0892B29F00E94650281110C94000002
:1006800008958150823108F05AC0E82FF0E08827A1
:10069000E35BFC4F8F4F0C944F0C6D0371035F03B2
:1006A000650369039F0374037A037E03840388034D
:1006B0008C03920396039F039A03A003A4038091E3
:1006C00080008F77809380000895809180008F7DD7
:1006D000F9CF80918000877FF5CF84B58F7784BD77
:1006E000089584B58F7DFBCF8091B0008F77809384
:1006F000B00008958091B0008F7DF9CF8091900077
:100700008F77809390000895809190008F7DF9CF2E
:1007100080919000877FF5CF8091A0008F778093A4
:10072000A00008958091A0008F7DF9CF8091A00056
:10073000877FF5CF809120018F77809320010895E6
:10074000809120018F7DF9CF80912001877FF5CFA7
:100750001F93CF93DF93282F30E0F901E25DFD4F27
:100760008491F901E851FE4FD491F901EE55FE4F05
:10077000C491CC23A9F0162F81110E944103EC2FC4
:10078000F0E0EE0FFF1FE259FE4FA591B4918FB735
:10079000F894EC91111108C0D095DE23DC938FBF43
:1007A000DF91CF911F910895DE2BF8CFCF93DF9388
:1007B00090E0FC01E851FE4F24918E559E4FFC01C4
:1007C00084918823D1F090E0880F991FFC01EC5AA6
:1007D000FE4FA591B491FC01E259FE4FC591D49111
:1007E00061110EC09FB7F8948C91E22FE0958E2393
:1007F0008C932881E223E8839FBFDF91CF910895F6
:100800008FB7F894EC91E22BEC938FBFF6CF3FB704
:10081000F8948091B0029091B102A091B202B0918F
:10082000B30226B5A89B05C02F3F19F00196A11D64
:10083000B11D3FBFBA2FA92F982F8827BC01CD012A
:10084000620F711D811D911D42E0660F771F881F89
:10085000991F4A95D1F7089520916502260F3327F5
:10086000331F21323105ECF420918902FC0190E024
:1008700080E0243069F082E00895A0916502219122
:10088000AC014B5B5D4FA40FB52FB11D2C930196AE
:10089000861798F380916502680F6093650280E087
:1008A000089581E0089508958FEF9FEF08958FEFE9
:1008B0009FEF089580913E0290E091958195910976
:1008C0000895CF93DF93CB01EA01642F0E942C049B
:1008D000CE01DF91CF910895CF93DF931F92CDB7D3
:1008E000DEB7698361E0CE0101960E942C0481E0AD
:1008F00090E00F90DF91CF910895089590E080E00F
:1009000008958F929F92AF92BF920F931F93CF93B0
:10091000DF93CDB7DEB7A1970FB6F894DEBF0FBE59
:10092000CDBF19A2423008F44AE08E010F5D1F4F7F
:10093000842E912CB12CA12CA50194010E942D0C88
:10094000E62FB901CA01EA3044F5E05DD801EE9323
:100950008D01232B242B252B79F790E080E0109735
:1009600069F0FD0101900020E9F73197AF014A1BC2
:100970005B0BBD0184E495E00E949501A1960FB642
:10098000F894DEBF0FBECDBFDF91CF911F910F91C5
:10099000BF90AF909F908F900895E95CD7CFFC01F6
:1009A00001900020E9F73197AF01481B590BBC01BA
:1009B00084E495E00C949501CF93DF93EC0160E023
:1009C0008E810E94A80361E08E810E94A80360E0EE
:1009D0008E810E94A8038BE891E00197F1F7DF91E7
:1009E000CF910895CF92DF92EF92FF920F931F93D2
:1009F000CF93DF936C017C0187E0E80EF11CD0E01F
:100A0000C0E0062F10E0B8010C2E02C07595679566
:100A10000A94E2F76170F70181917F010E94A803B7
:100A20002196C430D10579F7C601DF91CF911F918E
:100A30000F91FF90EF90DF90CF900C94DC04CF9259
:100A4000DF92EF92FF920F931F93CF93DF93EC010E
:100A5000F62E642F8C810E94A8038D818F3F19F0A0
:100A600060E00E94A8030F2D10E08F8584FF25C051
:100A70006E0187E0C80ED11CF12CE12CB8010E2CC0
:100A800002C0759567950A94E2F76170F60181914D
:100A90006F010E94A803FFEFEF1AFF0A88E0E81633
:100AA000F10461F7CE01DF91CF911F910F91FF907B
:100AB000EF90DF90CF900C94DC04B80184E0759542
:100AC00067958A95E1F7CE010E94F2046F2DCE0161
:100AD000DF91CF911F910F91FF90EF90DF90CF901A
:100AE0000C94F20440E0682F84E495E00C941F0518
:100AF000CF93DF93823029F49091530598609093BF
:100B00005305809357051092580580E4809359054A
:100B100080E180935A0580E580935B0561E08091D8
:100B200048050E94D603809149058F3F19F061E086
:100B30000E94D60361E080914A050E94D603C4E476
:100B4000D5E09E01245435408091530584FD0BC0AF
:100B500084E090E021962817390744F461E08E8103
:100B60000E94D603EECF88E090E0F4CF8BE39DE0C7
:100B70000197F1F760E0809148050E94A80360E0CA
:100B800080914A050E94A803809149058F3F19F082
:100B900060E00E94A8038091530584FD39C063E0A2
:100BA00084E495E00E94F204CBE4D6E4CE01019700
:100BB000F1F763E084E495E00E94F2042197F1F7F5
:100BC00063E084E495E00E94F20483E592E00197FB
:100BD000F1F762E084E495E00E94F204809153050D
:100BE00080620E94720584E0809354058CE00E942C
:100BF000720581E00E9472058BE39FE10197F1F796
:100C000082E08093550586E0DF91CF910C947205C8
:100C100080620E9472058BE496E40197F1F780915F
:100C2000530580620E94720583E592E00197F1F717
:100C30008091530580620E947205D0CF9091570534
:100C4000691710F06FEF690FE62FF0E0EC5BFA4FD9
:100C50009489890F80680C94720541E00E941F05F9
:100C600081E090E008951F93CF93DF9385ED80930B
:100C7000BC008091410290914202A0914302B09148
:100C800044020796A11DB11D23E0B695A79597953F
:100C900087952A95D1F72091BC0024FD03C01092BE
:100CA000890252C040914102509142026091430238
:100CB00070914402452B462B472B69F30097A10501
:100CC000B10541F025E32A95F1F700000197A1094C
:100CD000B109E1CF80914002C1E0C0933F02882377
:100CE00099F1D091B8001091BA008091BC008A7B34
:100CF0008093BC0060E084E10E94A80360E085E18D
:100D00000E94A80310928902C0938B0210928A025B
:100D100061E084E10E94A80361E085E10E94A803EC
:100D20008091B9008E7F8093B9008091B9008D7F4A
:100D30008093B90088E48093B80085E48093BC0078
:100D40001093BA00D093B800DF91CF911F9108950E
:100D50001F920F920FB60F9211240BB60F922F9382
:100D60003F934F935F936F937F938F939F93AF9333
:100D7000BF93EF93FF9380ED92E00E948D02FF916D
:100D8000EF91BF91AF919F918F917F916F915F9103
:100D90004F913F912F910F900BBE0F900FBE0F9070
:100DA0001F9018951F920F920FB60F9211240BB639
:100DB0000F922F933F934F935F936F937F938F93F4
:100DC0009F93AF93BF93EF93FF9380ED92E00E94C8
:100DD000C201FF91EF91BF91AF919F918F917F9150
:100DE0006F915F914F913F912F910F900BBE0F909C
:100DF0000FBE0F901F9018951F920F920FB60F9273
:100E000011240BB60F922F933F934F935F936F93E1
:100E10007F938F939F93AF93BF93EF93FF938DE651
:100E200093E00E948D02FF91EF91BF91AF919F914E
:100E30008F917F916F915F914F913F912F910F9083
:100E40000BBE0F900FBE0F901F9018951F920F9220
:100E50000FB60F9211240BB60F922F933F934F931F
:100E60005F936F937F938F939F93AF93BF93EF9312
:100E7000FF938DE693E00E94C201FF91EF91BF9135
:100E8000AF919F918F917F916F915F914F913F9122
:100E90002F910F900BBE0F900FBE0F901F901895C3
:100EA0001F920F920FB60F9211240BB60F922F9331
:100EB0003F934F935F936F937F938F939F93AF93E2
:100EC000BF93EF93FF938AE094E00E948D02FF911D
:100ED000EF91BF91AF919F918F917F916F915F91B2
:100EE0004F913F912F910F900BBE0F900FBE0F901F
:100EF0001F9018951F920F920FB60F9211240BB6E8
:100F00000F922F933F934F935F936F937F938F93A2
:100F10009F93AF93BF93EF93FF938AE094E00E9477
:100F2000C201FF91EF91BF91AF919F918F917F91FE
:100F30006F915F914F913F912F910F900BBE0F904A
:100F40000FBE0F901F9018951F920F920FB60F9221
:100F500011240BB60F922F933F934F935F936F9390
:100F60007F938F939F93AF93BF93EF93FF9387EA02
:100F700094E00E948D02FF91EF91BF91AF919F91FC
:100F80008F917F916F915F914F913F912F910F9032
:100F90000BBE0F900FBE0F901F9018951F920F92CF
:100FA0000FB60F9211240BB60F922F933F934F93CE
:100FB0005F936F937F938F939F93AF93BF93EF93C1
:100FC000FF9387EA94E00E94C201FF91EF91BF91E5
:100FD000AF919F918F917F916F915F914F913F91D1
:100FE0002F910F900BBE0F900FBE0F901F90189572
:100FF0001F920F920FB60F9211242F933F938F934E
:101000009F93AF93BF938091CC029091CD02A0911A
:10101000CE02B091CF023091AF0223E0230F2D37E3
:1010200058F50196A11DB11D2093AF028093CC020B
:101030009093CD02A093CE02B093CF028091B002E4
:101040009091B102A091B202B091B3020196A11D9C
:10105000B11D8093B0029093B102A093B202B093FD
:10106000B302BF91AF919F918F913F912F910F90BC
:101070000FBE0F901F90189526E8230F0296A11D12
:10108000B11DD2CF1F920F920FB60F9211240BB643
:101090000F922F933F934F935F936F937F938F9311
:1010A0009F93AF93BF93EF93FF938091B900887F95
:1010B000803609F44DC008F040C0883209F4A7C05A
:1010C00028F5803109F49BC0C8F4882309F4F7C0DF
:1010D000883009F494C0FF91EF91BF91AF919F9137
:1010E0008F917F916F915F914F913F912F910F90D1
:1010F0000BBE0F900FBE0F901F901895883109F40A
:1011000086C0803241F78093880214C0803409F48D
:101110009BC040F48033B9F38833E9F680938802AA
:1011200085ECAEC0803509F483C0883509F494C0DD
:10113000883489F60E943306CECF883909F48AC0F4
:1011400038F5883729F050F4883611F0803719F6D1
:1011500083E0809389021092870255C0883809F491
:1011600079C0803919F0803809F0B5CF80918702B5
:10117000803208F06FC0E091870281E08E0F80938B
:1011800087028091BB00F0E0E959FD4F80833BC0AE
:10119000803B39F0D0F4803A09F477C0883A09F0FE
:1011A0009ACF84E0809389021092660210926502C1
:1011B000F0E0E0E019958091650281110FC081E0B7
:1011C000809365021092450209C0803C09F4A8CFC3
:1011D000883C09F4A5CF883B09F07DCFE0916602F9
:1011E00081E08E0F80936602F0E0EB5BFD4F808123
:1011F0008093BB00909166028091650229C0809126
:10120000AE028093BB0085EC8093BC0064CF9091CC
:10121000AD028091AC02981758F5E091AD0281E0E3
:101220008E0F8093AD02F0E0E457FD4F8081E9CF4F
:10123000E091AD0281E08E0F8093AD028091BB0002
:10124000F0E0E457FD4F80839091AD028091AC02B5
:101250009817C8F285E8D8CFE091AD0281E08E0FF3
:101260008093AD028091BB00F0E0E457FD4F808396
:1012700080918B0281115ECF81E080938A0284EAA3
:101280008093BC001092890226CF85EC8093BC002D
:101290001092890280918702803230F4E0918702B7
:1012A000F0E0E959FD4F10826091870270E087E617
:1012B00092E0F0E0E0E01995109287020CCF1092D6
:1012C000880238CFE0EDF2E01382128248EE53E05C
:1012D00060E070E0448355836683778384E092E026
:1012E0009183808325E331E03587248724E331E04F
:1012F0003787268720E331E0318B208B21E331E0F3
:10130000338B228B22E331E0358B248B26E331E0D3
:10131000378B268B118E128E138E148EEDE6F3E032
:1013200013821282448355836683778391838083FB
:1013300025ED30E03587248724ED30E03787268798
:1013400020ED30E0318B208B21ED30E0338B228B90
:1013500022ED30E0358B248B26ED30E0378B268B69
:10136000118E128E138E148EEAE0F4E01382128234
:101370004483558366837783918380832DEC30E0AB
:10138000358724872CEC30E03787268728EC30E03F
:10139000318B208B29EC30E0338B228B2AEC30E030
:1013A000358B248B2EEC30E0378B268B118E128EF2
:1013B000138E148EE7EAF4E013821282448355837D
:1013C000668377839183808385EC90E0958784871B
:1013D00084EC90E09787868780EC90E0918B808BFF
:1013E00081EC90E0938B828B82EC90E0958B848BE8
:1013F00086EC90E0978B868B118E128E138E148E56
:10140000E4E4F5E01382128286E192E09183808326
:1014100087E084838FEF858386E0868382E08783FD
:1014200083E0808784E0818785E082871386148645
:1014300015861686178681E00C947805789484B515
:10144000826084BD84B5816084BD85B5826085BDC0
:1014500085B5816085BD80916E00816080936E004E
:101460001092810080918100826080938100809140
:1014700081008160809381008091800081608093F1
:1014800080008091B10084608093B1008091B000B1
:1014900081608093B0008091910082608093910080
:1014A0008091910081608093910080919000816093
:1014B000809390008091A10082608093A100809130
:1014C000A10081608093A1008091A0008160809341
:1014D000A0008091210182608093210180912101EF
:1014E000816080932101809120018160809320019F
:1014F00080917A00846080937A0080917A00826083
:1015000080937A0080917A00816080937A00809144
:101510007A00806880937A001092C10060E08DE0CC
:101520000E94D60380ED92E00E946E018DE693E06A
:101530000E946E018AE094E00E946E0187EA94E0C6
:101540000E946E0182E00E9478058EE192E00E9486
:10155000CF040E9407044B015C0144E6C42ED12C49
:10156000E12CF12C0E940704681979098A099B096A
:10157000683E734081059105A8F321E0C21AD108A5
:10158000E108F10888EE880E83E0981EA11CB11CCA
:10159000C114D104E104F10429F781E00E9472052D
:1015A0008BE39FE10197F1F760E080E00E941E0667
:1015B00081E392E00E94CF0460E084E00E941E0676
:1015C00084E392E00E94CF0460E088E00E941E065F
:1015D00087E392E00E94CF0460E08CE00E941E0648
:1015E0008AE392E00E94CF0481E190E00E94170C10
:1015F0008093C80282E190E00E94170C8093C90298
:1016000083E190E00E94170C8093CA0284E190E08D
:101610000E94170C8093CB02E8ECF2E081918F3F9F
:1016200019F4DF0111971C9222E0EC3CF207B1F7AC
:10163000CBE3D2E005EF11E03FEAE32E31E0F32EF9
:101640008091C8029091C402890F9091C002890FC5
:101650009091BC02890F9091B802890F8093B402D7
:101660008091C9029091C502890F9091C102890FA2
:101670009091BD02890F9091B902890F8093B502B4
:101680008091CA029091C602890F9091C202890F7F
:101690009091BE02890F9091BA02890F8093B60291
:1016A0008091CB029091C702890F9091C302890F5C
:1016B0009091BF02890F9091BB02890F8093B7026E
:1016C000FE018491F801C490F701D490DD2041F12E
:1016D00081110E944103ED2DF0E0EE0FFF1FE8574E
:1016E000FE4FA591B4918C91C822D1F084EBA82E25
:1016F00082E0B82E91E1C92ED12CF50191905F01C5
:10170000C6010E94170C981621F0692DC6010E948F
:101710001F0CFFEFCF1ADF0A25E1C216D10469F7CB
:1017200060E080E00E941E0681E392E00E94CF0408
:1017300061E081E00E941E066091B40270E090E0DA
:1017400080E04AE00E94810460E084E00E941E067E
:1017500084E392E00E94CF0461E085E00E941E06CF
:101760006091B50270E090E080E04AE00E94810460
:1017700060E088E00E941E0687E392E00E94CF04AA
:1017800061E089E00E941E066091B60270E090E080
:1017900080E04AE00E94810460E08CE00E941E0626
:1017A0008AE392E00E94CF0461E08DE00E941E0671
:1017B0006091B70270E090E080E04AE00E9481040E
:1017C00080ED92E00E9459021816190634F468EB75
:1017D00072E080ED92E00E94FE018DE693E00E94AF
:1017E00059021816190634F46CEB72E08DE693E09A
:1017F0000E94FE018AE094E00E9459021816190620
:1018000034F460EC72E08AE094E00E94FE0187EA22
:1018100094E00E9459021816190634F464EC72E040
:1018200087EA94E00E94FE010E941C0309CFF99907
:10183000FECF92BD81BDF89A992780B50895262FD5
:10184000F999FECF1FBA92BD81BD20BD0FB6F894A5
:10185000FA9AF99A0FBE01960895A1E21A2EAA1BD0
:10186000BB1BFD010DC0AA1FBB1FEE1FFF1FA21750
:10187000B307E407F50720F0A21BB30BE40BF50B4D
:10188000661F771F881F991F1A9469F760957095D6
:10189000809590959B01AC01BD01CF010895EE0F9D
:1018A000FF1F881F8BBF0790F691E02D1994F894C5
:0218B000FFCF68
:1018B20000000000AF029501DB01FC025902EA01BF
:1018C2004B02000000002D0695017E047D042020BD
:1018D2002020566F74696E67204D616368696E657A
:0E18E200004345004353004545004D450000BE
:00000001FF
