:100000000C943B010C946C010C946C010C946C01ED
:100010000C946C010C946C010C946C010C946C01AC
:100020000C946C010C946C010C946C010C946C019C
:100030000C946C010C946C010C946C010C946C018C
:100040000C946C010C946C010C946C010C946C017C
:100050000C946C010C946C010C946C010C94F104E4
:100060000C946C010C94BB040C9491040C946C01E2
:100070000C946C010C946C010C946C010C946C014C
:100080000C946C010C946C010C946C010C946C013C
:100090000C946C010C946C010C946C010C946C012C
:1000A0000C946C010C946C010C946C010C946C011C
:1000B0000C946C010C946C010C946C010C946C010C
:1000C0000C946C010C946C010C946C010C946C01FC
:1000D0000C946C010C946C010C946C010C946C01EC
:1000E0000C946C010C945D030C948E030C948003AF
:1000F0000C9465030C9461030C946E030C948603BA
:100100000C9494030C9468030C9493030C9478035C
:100110000C94F6030C9459030C9472030C943D0256
:100120000C9451020C9436040C9498030C945303D1
:100130000C943B050C9497020C94C5030C948A0311
:100140000C947C030C945F020C94E4020C94010266
:100150000C942E0200002100240027002A002D000C
:100160003000330001010000040107010A01000012
:100170002200250028002B002E003100340002014F
:100180000000050108010B010000200023002600EB
:1001900029002C002F00320000010000030106019D
:1001A00009010505050507050808080802020202FD
:1001B0000A0A080804040404010101010101010103
:1001C0000303030303030303040707070C0C0C0CCE
:1001D0000C0C0C0C020202020606060606060606B7
:1001E0000B0B0B0B0B0B0B0B010210202008081044
:1001F0002040102040800201020108040201010297
:10020000040810204080804020100804020180046F
:1002100002018040201008040201080402010102CA
:1002200004081020408001020408102040800000D3
:100230000A0B02090C0D0E08070304010000000060
:1002400000000000000000000000000000000000AE
:10025000000000000000000000001211100000006B
:10026000000000000000000000000000000000008E
:10027000000000003B0511241FBECFEFD1E2DEBF1E
:10028000CDBF00E00CBF12E0A0E0B2E0E0E4F0E19E
:1002900000E00BBF02C007900D92A433B107D9F75D
:1002A00023E0A4E3B2E001C01D92A135B207E1F75B
:1002B00011E0CBE3D1E000E006C021970109802FD7
:1002C000FE010E941608CA33D10780E00807A9F78B
:1002D0000E94C8050C941E080C94000096E0899FAB
:1002E000D0011124AE51BD4F90967C936E935F97D1
:1002F00091E091969C939197E0914F03F091500378
:1003000090914E03992339F0309751F0811108C034
:100310008091FE021994309719F05C968C91FACF77
:100320000895CF92DF92EF92FF920F931F9396E082
:10033000899FF0011124EE51FD4F11A2278D30A1AC
:100340002130310551F178F02230310509F451C0E6
:100350002330310509F452C01F910F91FF90EF90A7
:10036000DF90CF9008956623B9F361E070E00E94BA
:100370006E012FB7F8948091410290914202A091B2
:100380004302B09144022FBF80933A0390933B0302
:10039000A0933C03B0933D03DFCF9FB7F894C09088
:1003A0004102D0904202E0904302F09044029FBF8D
:1003B00000913A0310913B0320913C0330913D039F
:1003C000C01AD10AE20AF30A00914C0310914D03BE
:1003D00030E020E00C151D052E053F0550F462E0CD
:1003E00070E01F910F91FF90EF90DF90CF900C94F1
:1003F0006E016111B1CF63E070E0F3CF70E060E0B7
:10040000F0CFAF92BF92CF92DF92EF92FF920F9315
:100410001F93CF93DF936C017B018B01040F151F9A
:10042000EB015E01AE18BF08C017D10759F0699102
:10043000D601ED91FC910190F081E02DC601199556
:10044000892B79F7C501DF91CF911F910F91FF9013
:10045000EF90DF90CF90BF90AF900895FC01538D47
:10046000448D252F30E0842F90E0821B930B54178E
:1004700010F0CF96089501970895FC01918D828D1B
:10048000981761F0A28DAE0FBF2FB11D5D968C91B4
:10049000928D9F5F9F73928F90E008958FEF9FEFF3
:1004A0000895FC01918D828D981731F0828DE80FAF
:1004B000F11D858D90E008958FEF9FEF0895FC0169
:1004C000918D228D892F90E0805C9F4F821B910936
:1004D0008F739927089585E492E00E945F0221E0DE
:1004E000892B09F420E0822F0895FC01A48DA80F28
:1004F000B92FB11DA35ABF4F2C91848D90E0019666
:100500008F739927848FA689B7892C93A089B18985
:100510008C91837080648C93938D848D981306C026
:100520000288F389E02D80818F7D80830895EF928A
:10053000FF920F931F93CF93DF93EC0181E0888F9D
:100540009B8D8C8D98131AC0E889F989808185FF6D
:1005500015C09FB7F894EE89FF896083E889F9890F
:1005600080818370806480839FBF81E090E0DF9111
:10057000CF911F910F91FF90EF900895F62E0B8D64
:1005800010E00F5F1F4F0F731127E02E8C8D8E111F
:100590000CC00FB607FCFACFE889F989808185FF86
:1005A000F5CFCE010E947502F1CFEB8DEC0FFD2F40
:1005B000F11DE35AFF4FF0829FB7F8940B8FEA8941
:1005C000FB8980818062CFCFCF93DF93EC01888D50
:1005D0008823B9F0AA89BB89E889F9898C9185FDBE
:1005E00003C0808186FD0DC00FB607FCF7CF8C914C
:1005F00085FFF2CF808185FFEDCFCE010E9475028D
:10060000E9CFDF91CF91089580E090E0892B29F028
:100610000E946B0281110E94000080E090E0892B13
:1006200049F080E090E0892B29F00E9400008111C0
:100630000E94000080E090E0892B49F080E090E08B
:10064000892B29F00E94000081110E94000080E0A7
:1006500090E0892B49F080E090E0892B29F00E94FE
:10066000000081110C94000008958150823108F03F
:100670005AC0E82FF0E08827EF5BFC4F8F4F0C94B7
:10068000160861036503530359035D03930368036D
:100690006E03720378037C03800386038A0393034B
:1006A0008E0394039803809180008F77809380005D
:1006B0000895809180008F7DF9CF80918000877FA1
:1006C000F5CF84B58F7784BD089584B58F7DFBCF3A
:1006D0008091B0008F778093B00008958091B00032
:1006E0008F7DF9CF809190008F778093900008954F
:1006F000809190008F7DF9CF80919000877FF5CF1A
:100700008091A0008F778093A00008958091A00031
:100710008F7DF9CF8091A000877FF5CF8091200158
:100720008F77809320010895809120018F7DF9CFEC
:1007300080912001877FF5CFCF93DF93282F30E082
:10074000F901E25DFD4F8491F901E851FE4FD4912A
:10075000F901EE55FE4FC491CC23A1F081110E9406
:100760003503EC2FF0E0EE0FFF1FE857FE4FA59189
:10077000B491EC91ED2381E090E009F480E0DF9109
:10078000CF91089580E090E0FACF862F0C949C03DF
:100790001F93CF93DF93282F30E0F901E25DFD4FE7
:1007A0008491F901E851FE4FD491F901EE55FE4FC5
:1007B000C491CC23A9F0162F81110E943503EC2F90
:1007C000F0E0EE0FFF1FE259FE4FA591B4918FB7F5
:1007D000F894EC91111108C0D095DE23DC938FBF03
:1007E000DF91CF911F910895DE2BF8CF862F642FD4
:1007F0000C94C803CF93DF9390E0FC01E851FE4FC7
:1008000024918E559E4FFC0184918823C9F090E07D
:10081000880F991FFC01EC5AFE4FA591B491FC0181
:10082000E259FE4FC591D49161110DC09FB7F89464
:100830008C91209582238C938881282328839FBFC5
:10084000DF91CF910895623051F49FB7F8943C91B5
:10085000822F809583238C93E8812E2BEFCF8FB747
:10086000F894EC912E2B2C938FBFEACF862F642F18
:100870000C94FA033FB7F8948091350290913602B8
:10088000A0913702B091380226B5A89B05C02F3F32
:1008900019F00196A11DB11D3FBFBA2FA92F982FA6
:1008A0008827BC01CD01620F711D811D911D42E0A1
:1008B000660F771F881F991F4A95D1F708958F9269
:1008C0009F92AF92BF92CF92DF92EF92FF924B0135
:1008D0005C010E943A046B017C010E943A046C198D
:1008E0007D098E099F09683E734081059105A8F333
:1008F00021E0821A9108A108B10888EEC80E83E0B1
:10090000D81EE11CF11C81149104A104B10429F743
:10091000FF90EF90DF90CF90BF90AF909F908F901F
:1009200008951F920F920FB60F9211240BB60F92DB
:100930002F933F934F935F936F937F938F939F93E7
:10094000AF93BF93EF93FF9385E492E00E9475020B
:10095000FF91EF91BF91AF919F918F917F916F9197
:100960005F914F913F912F910F900BBE0F900FBE53
:100970000F901F9018951F920F920FB60F9211248F
:100980000BB60F922F938F939F93EF93FF93E0916A
:100990005502F09156028081E0915B02F0915C0279
:1009A00082FD1DC0908180915E028F5F8F732091C8
:1009B0005F02821741F0E0915E02F0E0EB5BFD4FD9
:1009C000958F80935E02FF91EF919F918F912F9170
:1009D0000F900BBE0F900FBE0F901F901895808147
:1009E000F2CF1F920F920FB60F9211242F933F93C5
:1009F0008F939F93AF93BF93809141029091420256
:100A0000A0914302B09144023091340223E0230FBD
:100A10002D3758F50196A11DB11D20933402809306
:100A2000410290934202A0934302B093440280910A
:100A3000350290913602A0913702B09138020196AA
:100A4000A11DB11D8093350290933602A093370209
:100A5000B0933802BF91AF919F918F913F912F91A9
:100A60000F900FBE0F901F90189526E8230F029647
:100A7000A11DB11DD2CF109248021092470288EEFC
:100A800093E0A0E0B0E08093490290934A02A093E3
:100A90004B02B0934C028CE192E09093460280931B
:100AA000450285EC90E0909352028093510284ECD1
:100AB00090E0909354028093530280EC90E09093E6
:100AC00056028093550281EC90E0909358028093F7
:100AD000570282EC90E090935A028093590286EC80
:100AE00090E090935C0280935B0210925E02109201
:100AF0005F0210926002109261021092E402109262
:100B0000E8021092E7021092E9028EE292E09093DE
:100B1000E3028093E202EEEFF2E01082148213828D
:100B20001582369683E0EA33F807B9F784E092E05D
:100B3000909345038093440380E092E090934703B1
:100B40008093460384E0809348038093490388E0C0
:100B500092E090934303809342038AE090E0909365
:100B60004B0380934A0384EF91E090934D0380936D
:100B70004C031092500310924F0310923E031092B8
:100B80003F03109240031092410310924E030895C8
:100B9000CF93DF9300D01F92CDB7DEB7789484B5A2
:100BA000826084BD84B5816084BD85B5826085BD69
:100BB00085B5816085BD80916E00816080936E00F7
:100BC00010928100809181008260809381008091E9
:100BD000810081608093810080918000816080939A
:100BE00080008091B10084608093B1008091B0005A
:100BF00081608093B0008091910082608093910029
:100C0000809191008160809391008091900081603B
:100C1000809390008091A10082608093A1008091D8
:100C2000A10081608093A1008091A00081608093E9
:100C3000A000809121018260809321018091210197
:100C40008160809321018091200181608093200147
:100C500080917A00846080937A0080917A0082602B
:100C600080937A0080917A00816080937A008091ED
:100C70007A00806880937A001092C10061E084E37A
:100C80000E94FA03E0915502F091560282E08083BF
:100C9000E0915102F09152021082E0915302F091E2
:100CA00054028FEC808310925D02E0915902F09122
:100CB0005A0286E08083E0915702F09158028081C9
:100CC00080618083E0915702F091580280818860B2
:100CD0008083E0915702F091580280818068808380
:100CE000E0915702F091580280818F7D8083412CE2
:100CF000512C32014394AA24AA94BA2C51E0509367
:100D00004E038FB7F8944091410250914202609196
:100D10004302709144028FBF80913E0390913F0344
:100D2000A0914003B0914103481B590B6A0B7B0B08
:100D300080914A0390914B03B0E0A0E0841795079F
:100D4000A607B707D8F610E080914803181760F49B
:100D5000E0914403F0914503E10FF11D62E08081D1
:100D60000E94FA031F5FF0CF312C8091490338169F
:100D700008F061C0E32CF12CE0914603F0914703A9
:100D8000EE0DFF1D61E080810E94FA03E0914603B1
:100D9000F0914703EE0DFF1D60E080810E94C803C3
:100DA000D301C201032C04C0880F991FAA1FBB1FC7
:100DB0000A94D2F74C016C01C094D094212C8091FC
:100DC0004803281608F5022D10E0E0914403F09145
:100DD0004503E00FF11F80810E949C030C5F1F4FB1
:100DE000000F111FF801EE51FD4F892B41F4808156
:100DF000918188299929918380832394E0CF8081F0
:100E000091818C219D21F7CFE0914603F09147031A
:100E1000EE0DFF1D61E080810E94C80380914603B2
:100E200090914703E80EF91E60E0F70180810E946F
:100E3000FA0333949ACF02EE12E07801F701878D1E
:100E400090A1892B21F4148EB68EA58E11A2F6E006
:100E5000EF0EF11C5EE1E51653E0F50679F7912CF3
:100E600080914803981608F053C0812CC92CD12CCE
:100E7000CC0CDD1CC60186519D4F6C0120914903AD
:100E8000821608F043C0F60160817181082C02C00F
:100E9000769567950A94E2F7929E90011124280DA9
:100EA000311DE2EEF2E080E0458D568D24173507C6
:100EB00009F4BAC08F5F36968A30B1F760FF24C05C
:100EC000E2EEF2E090E080E0448D411118C0E09144
:100ED0004203F0914303E20FF31F408156E0589F15
:100EE000F001599FF00D1124EE51FD4F448F368FC4
:100EF000258F10A2178E61E00E94910105C0019616
:100F000036968A30910501F78394B8CF9394A8CF91
:100F100080E0F80191A19111892F0A5F1F4FE0161F
:100F2000F106B9F79FB7F8944091410250914202FF
:100F300060914302709144029FBF40933E035093DF
:100F40003F036093400370934103882309F4D6CE96
:100F500080910303882309F4D1CE809101039091FD
:100F60000203019709F0CACE8091FE02882309F49A
:100F7000C5CE8133A9F580913F0290914002019640
:100F80009093400280933F0261E084E30E94C80393
:100F900064E170E080E090E00E945F0460E084E340
:100FA0000E94C80380913F02898380913D028A8319
:100FB00080913B028B83809139028C8344E050E026
:100FC000BE016F5F7F4F85E492E00E94010264E6FC
:100FD00070E080E090E00E945F040E9404038ECEE7
:100FE000823351F480913D0290913E02019690939C
:100FF0003E0280933D02C8CF833351F480913B027F
:1010000090913C02019690933C0280933B02BCCFAE
:10101000843341F68091390290913A02019690937F
:101020003A0280933902B0CF617066CFEE0FFF1F96
:10103000881F8BBF0790F691E02D1994F894FFCF8D
:101040001A1B1C00161718193132330034353600BC
:10105000373839002A3023000000000097020102CF
:101060002E02E4025F023D0251020000000036043D
:04107000F603C503BB
:00000001FF
